{
  "abi": [
    {
      "inputs": [
        {
          "internalType": "address",
          "name": "tokenAddress",
          "type": "address"
        }
      ],
      "stateMutability": "nonpayable",
      "type": "constructor"
    },
    {
      "anonymous": false,
      "inputs": [
        {
          "indexed": true,
          "internalType": "address",
          "name": "payee",
          "type": "address"
        },
        {
          "indexed": false,
          "internalType": "uint256",
          "name": "weiAmount",
          "type": "uint256"
        }
      ],
      "name": "Deposited",
      "type": "event"
    },
    {
      "anonymous": false,
      "inputs": [
        {
          "indexed": false,
          "internalType": "address",
          "name": "receiver",
          "type": "address"
        },
        {
          "indexed": false,
          "internalType": "uint256",
          "name": "amount",
          "type": "uint256"
        }
      ],
      "name": "Rewarder",
      "type": "event"
    },
    {
      "inputs": [],
      "name": "GoodToken",
      "outputs": [
        {
          "internalType": "contract IERC20",
          "name": "",
          "type": "address"
        }
      ],
      "stateMutability": "view",
      "type": "function"
    },
    {
      "inputs": [],
      "name": "deposit",
      "outputs": [],
      "stateMutability": "payable",
      "type": "function"
    },
    {
      "inputs": [],
      "name": "reward",
      "outputs": [],
      "stateMutability": "nonpayable",
      "type": "function"
    }
  ],
  "bytecode": "608060405234801561001057600080fd5b5060405161032138038061032183398101604081905261002f91610054565b600080546001600160a01b0319166001600160a01b0392909216919091179055610084565b60006020828403121561006657600080fd5b81516001600160a01b038116811461007d57600080fd5b9392505050565b61028e806100936000396000f3fe6080604052600436106100345760003560e01c8063228cb73314610039578063cb94332b14610050578063d0e30db01461008c575b600080fd5b34801561004557600080fd5b5061004e610094565b005b34801561005c57600080fd5b50600054610070906001600160a01b031681565b6040516001600160a01b03909116815260200160405180910390f35b61004e610208565b600080546040516370a0823160e01b81523360048201526001600160a01b03909116906370a0823190602401602060405180830381865afa1580156100dd573d6000803e3d6000fd5b505050506040513d601f19601f82011682018060405250810190610101919061023f565b1161014a5760405162461bcd60e51b81526020600482015260146024820152732cb7ba9030b932903737ba1030903437b63232b960611b60448201526064015b60405180910390fd5b670de0b6b3a76400004710156101955760405162461bcd60e51b815260206004820152601060248201526f3737ba1032b737bab3b41032ba3432b960811b6044820152606401610141565b60408051338152670de0b6b3a764000060208201527f8bc804330ccb1f29047eb908a8c527b762c6376b152b9b0092c0b9834b5e0c6c910160405180910390a16040513390600090670de0b6b3a76400009082818181858883f19350505050158015610205573d6000803e3d6000fd5b50565b60405134815233907f2da466a7b24304f47e87fa2e1e5a81b9831ce54fec19055ce277ca2f39ba42c49060200160405180910390a2565b60006020828403121561025157600080fd5b505191905056fea2646970667358221220b78acb0d87a2a92a9dd9be7438e9913c8df18c97138cad1b9347625b6fc6d6ca64736f6c63430008100033",
  "bytecodeSha1": "77193832292c24bff30168d8b8760709b51df02c",
  "compiler": {
    "evm_version": "istanbul",
    "optimizer": {
      "enabled": true,
      "runs": 200
    },
    "version": "0.8.16+commit.07a7930e"
  },
  "contractName": "Rewarder",
  "language": "Solidity",
  "natspec": {
    "kind": "dev",
    "methods": {},
    "version": 1
  },
  "opcodes": "PUSH1 0x80 PUSH1 0x40 MSTORE PUSH1 0x4 CALLDATASIZE LT PUSH2 0x34 JUMPI PUSH1 0x0 CALLDATALOAD PUSH1 0xE0 SHR DUP1 PUSH4 0x228CB733 EQ PUSH2 0x39 JUMPI DUP1 PUSH4 0xCB94332B EQ PUSH2 0x50 JUMPI DUP1 PUSH4 0xD0E30DB0 EQ PUSH2 0x8C JUMPI JUMPDEST PUSH1 0x0 DUP1 REVERT JUMPDEST CALLVALUE DUP1 ISZERO PUSH2 0x45 JUMPI PUSH1 0x0 DUP1 REVERT JUMPDEST POP PUSH2 0x4E PUSH2 0x94 JUMP JUMPDEST STOP JUMPDEST CALLVALUE DUP1 ISZERO PUSH2 0x5C JUMPI PUSH1 0x0 DUP1 REVERT JUMPDEST POP PUSH1 0x0 SLOAD PUSH2 0x70 SWAP1 PUSH1 0x1 PUSH1 0x1 PUSH1 0xA0 SHL SUB AND DUP2 JUMP JUMPDEST PUSH1 0x40 MLOAD PUSH1 0x1 PUSH1 0x1 PUSH1 0xA0 SHL SUB SWAP1 SWAP2 AND DUP2 MSTORE PUSH1 0x20 ADD PUSH1 0x40 MLOAD DUP1 SWAP2 SUB SWAP1 RETURN JUMPDEST PUSH2 0x4E PUSH2 0x208 JUMP JUMPDEST PUSH1 0x0 DUP1 SLOAD PUSH1 0x40 MLOAD PUSH4 0x70A08231 PUSH1 0xE0 SHL DUP2 MSTORE CALLER PUSH1 0x4 DUP3 ADD MSTORE PUSH1 0x1 PUSH1 0x1 PUSH1 0xA0 SHL SUB SWAP1 SWAP2 AND SWAP1 PUSH4 0x70A08231 SWAP1 PUSH1 0x24 ADD PUSH1 0x20 PUSH1 0x40 MLOAD DUP1 DUP4 SUB DUP2 DUP7 GAS STATICCALL ISZERO DUP1 ISZERO PUSH2 0xDD JUMPI RETURNDATASIZE PUSH1 0x0 DUP1 RETURNDATACOPY RETURNDATASIZE PUSH1 0x0 REVERT JUMPDEST POP POP POP POP PUSH1 0x40 MLOAD RETURNDATASIZE PUSH1 0x1F NOT PUSH1 0x1F DUP3 ADD AND DUP3 ADD DUP1 PUSH1 0x40 MSTORE POP DUP2 ADD SWAP1 PUSH2 0x101 SWAP2 SWAP1 PUSH2 0x23F JUMP JUMPDEST GT PUSH2 0x14A JUMPI PUSH1 0x40 MLOAD PUSH3 0x461BCD PUSH1 0xE5 SHL DUP2 MSTORE PUSH1 0x20 PUSH1 0x4 DUP3 ADD MSTORE PUSH1 0x14 PUSH1 0x24 DUP3 ADD MSTORE PUSH20 0x2CB7BA9030B932903737BA1030903437B63232B9 PUSH1 0x61 SHL PUSH1 0x44 DUP3 ADD MSTORE PUSH1 0x64 ADD JUMPDEST PUSH1 0x40 MLOAD DUP1 SWAP2 SUB SWAP1 REVERT JUMPDEST PUSH8 0xDE0B6B3A7640000 SELFBALANCE LT ISZERO PUSH2 0x195 JUMPI PUSH1 0x40 MLOAD PUSH3 0x461BCD PUSH1 0xE5 SHL DUP2 MSTORE PUSH1 0x20 PUSH1 0x4 DUP3 ADD MSTORE PUSH1 0x10 PUSH1 0x24 DUP3 ADD MSTORE PUSH16 0x3737BA1032B737BAB3B41032BA3432B9 PUSH1 0x81 SHL PUSH1 0x44 DUP3 ADD MSTORE PUSH1 0x64 ADD PUSH2 0x141 JUMP JUMPDEST PUSH1 0x40 DUP1 MLOAD CALLER DUP2 MSTORE PUSH8 0xDE0B6B3A7640000 PUSH1 0x20 DUP3 ADD MSTORE PUSH32 0x8BC804330CCB1F29047EB908A8C527B762C6376B152B9B0092C0B9834B5E0C6C SWAP2 ADD PUSH1 0x40 MLOAD DUP1 SWAP2 SUB SWAP1 LOG1 PUSH1 0x40 MLOAD CALLER SWAP1 PUSH1 0x0 SWAP1 PUSH8 0xDE0B6B3A7640000 SWAP1 DUP3 DUP2 DUP2 DUP2 DUP6 DUP9 DUP4 CALL SWAP4 POP POP POP POP ISZERO DUP1 ISZERO PUSH2 0x205 JUMPI RETURNDATASIZE PUSH1 0x0 DUP1 RETURNDATACOPY RETURNDATASIZE PUSH1 0x0 REVERT JUMPDEST POP JUMP JUMPDEST PUSH1 0x40 MLOAD CALLVALUE DUP2 MSTORE CALLER SWAP1 PUSH32 0x2DA466A7B24304F47E87FA2E1E5A81B9831CE54FEC19055CE277CA2F39BA42C4 SWAP1 PUSH1 0x20 ADD PUSH1 0x40 MLOAD DUP1 SWAP2 SUB SWAP1 LOG2 JUMP JUMPDEST PUSH1 0x0 PUSH1 0x20 DUP3 DUP5 SUB SLT ISZERO PUSH2 0x251 JUMPI PUSH1 0x0 DUP1 REVERT JUMPDEST POP MLOAD SWAP2 SWAP1 POP JUMP INVALID LOG2 PUSH5 0x6970667358 0x22 SLT KECCAK256 0xB7 DUP11 0xCB 0xD DUP8 LOG2 0xA9 0x2A SWAP14 0xD9 0xBE PUSH21 0x38E9913C8DF18C97138CAD1B9347625B6FC6D6CA64 PUSH20 0x6F6C634300081000330000000000000000000000 ",
  "sha1": "f9b17b6a17a424312ff9e1ccd868f3c50406a5fc",
  "source": "pragma solidity ^0.8.0;\n\nimport \"../interfaces/IERC20.sol\";\n\ncontract Rewarder {\n\n\n    IERC20 public GoodToken;\n    event Deposited(address indexed payee, uint256 weiAmount);\n    event Rewarder(address receiver, uint256 amount);\n\n    modifier OnlyHolders {\n        require(GoodToken.balanceOf(msg.sender)> 0, \"You are not a holder\");\n        _;\n    }\n \n    constructor (address tokenAddress) public {\n        GoodToken = IERC20(tokenAddress);\n    }\n\n\n    function deposit() public payable {\n        emit Deposited(msg.sender, msg.value);\n    }\n    \n    function reward() public OnlyHolders {\n        require(address(this).balance >= 1 ether, \"not enough ether\");\n        emit Rewarder(msg.sender, 1 ether);\n\n        payable(msg.sender).transfer(1 ether);\n\n    }\n\n}",
  "sourcePath": "contracts/reward.sol",
  "type": "contract"
}